:020000040800F2
:10000000E00C0020C50000080D120008610E000879
:1000100000000000000000000000000000000000E0
:1000200000000000000000000000000011120008A5
:1000300000000000000000000F1200081512000868
:10004000D700000800000000D7000008D700000813
:10005000D7000008D7000008D7000008D700000824
:1000600000000000D7000008D7000008D7000008F3
:10007000D7000008D7000008D700000800000000E3
:10008000D70000080000000000000000051900086B
:1000900000000000D7000008D7000008D7000008C3
:1000A00000000000D700000800000000751D0008D7
:1000B0000348854600F014F800480047A5220008D0
:1000C000E00C00200448804704480047FEE7FEE7B4
:1000D000FEE7FEE7FEE7FEE7A5120008B100000814
:1000E000064C0125064E05E0E36807CC2B430C3C8B
:1000F00098471034B442F7D3FFF7DEFF683E00089C
:10010000883E000870B50446002903D00020202254
:10011000012310E0002801D00020C043C046C046A3
:100120000DE02546D5408D4205D30D469540641B14
:100130001D46954040191546521E002DF1DC214602
:1001400070BDD2B201E00270401C491EFBD2704764
:100150000022F6E710B513460A4604461946FFF793
:10016000F0FF204610BD0000F0B587B00921C90698
:100170000191012700231E460397029021E0B4401D
:10018000019A1068A04310601C201840059D85400E
:100190000498C00880001018016AA9430162D06861
:1001A000A043D06050680699884350609068A0438F
:1001B000906002980146F9401B1DB61C7F1C002967
:1001C00028D07C1E0399A1400A460240F2D0069135
:1001D0000C2119400F2505958D40214603240491DB
:1001E000A143764808582842C9D17448081800909D
:1001F0007049086890430860486890434860C86840
:100200009043C86088689043886000990868A84354
:100210000860B4E707B0F0BDF0B58BB00F68002FF1
:1002200000D1C3E002466248824201D0052000E0CE
:1002300003200090012400252B4601940491029292
:100240000CE03A43089B5B4802600F683846E04088
:10025000AD1C1B1D641C002800D1A7E0661E019880
:100260000996B04007400597EFD0089303231A463C
:10027000AA40D2430E46294675682E461E40771E78
:10028000012F07920691039412D81746029A936899
:100290003B40049CE7688F401F439760EB06DB0FF1
:1002A000099FBB40576887431F4357602C4607E0B0
:1002B000032E029A2C4603D11E46049F089B1FE082
:1002C000D068079B1840049FBB6806998B40034386
:1002D000D360022E089B13D11C20184015460F2214
:1002E0008240099BDB089B00EB181E6A96433A6923
:1002F000824032431A622A46089B7C6803262640C5
:10030000069DAE4010683946079F38403043106064
:10031000A003800F039C98D0274A11680120014355
:100320001160116801400A910C271F400F23BB4048
:1003300003260999B1430A9E204A8E589E43029A89
:100340001E4BC9180923DB069A4208D01C4B9A425F
:1003500006D01C488242009802D1022000E0002012
:10036000B840304308601348826804994868C30263
:1003700002D5059F3A4301E0059FBA430D4B9A60B1
:10038000DA68830201D53A4300E0BA43094BDA60E8
:100390005A68830301D53A4300E0BA43054B5A60DB
:1003A0001A68C00300D54CE7BA434BE70BB0F0BD69
:1003B000000C0048000401401810024008000140F1
:1003C0000004004800080048F0B585B00F464122FF
:1003D000964CA15C0226202900D024E1002F37D0C2
:1003E0004021635C012B00D11DE1019003920120AB
:1003F0000290049160548E48056820688169090460
:100400002AD42221039AA154422204990292A1548F
:1004100000236364012666854168864A1140864A46
:10042000891841606762009363638169890735D4E5
:100430006420294600F016FD00284DD17C48006854
:10044000411B20686529F0D381698907EDD43AE022
:10045000012670026064E6E00298C60302E081694A
:100460003142CED01920294600F0FCFC002842D1B0
:100470006F480068411B20681A29F0D38169314216
:10048000EDD0606C20210843606403982154002063
:100490000499605442216054029EC4E00199C9B29B
:1004A0008162816949061BD46420294600F0DAFC88
:1004B000002811D1F8480068411B20686529F0D355
:1004C00081694906EDD4606C20210843606403987B
:1004D0002154002002996054002004996054A2E045
:1004E000618D3746090A08D04268EC490A40001D70
:1004F0000121534B0AE0029E95E0618D4368E74A73
:100500001340CAB212041A43001D4C4B1A43A026D2
:100510003243026021852068816949070FD4642035
:10052000294600F09FFC002860D1DB480068411B91
:1005300020686529F0D381694907EDD458E0616AE4
:10054000406A0870608D401E6085606A401C606271
:10055000208D401E2085618D00292ED000042CD1D5
:100560002068816909060FD46420294600F07AFCCE
:1005700000284AD1C8480068411B20686529F0D38B
:1005800081690906EDD442E0618D090A07D0012195
:1005900021854168C34A1140001D2A4A0AE0618D45
:1005A00021854268BF4B1A40C9B209041143012298
:1005B0005206001D114331430160608D0028AAD10D
:1005C000284600F0E1FC00283E46049D039A2AD10B
:1005D00020682021C16116464268B44B1340436035
:1005E000A155009E6655029826541CE03E461AE02E
:1005F000606C202108436064039821540020049912
:100600006054029960543E460DE03E460BE0606C3B
:100610002021084360640398215400200499605409
:10062000029960543E46304605B0F0BD740000208B
:10063000D8080020009800FCA0200100002400023F
:100640000024010100000101F0B585B00F464122F0
:10065000A14CA15C0226202900D01AE1002F37D03E
:100660004021635C012B00D113E101900392012032
:1006700002900491605488480568206881690904E3
:100680002AD42121039AA154422204990292A1540E
:1006900000236364012666854168804A0A408049D8
:1006A000511841606762009363638169890735D49B
:1006B0006420294600F0D6FB00284DD1764800681A
:1006C000411B20686529F0D381698907EDD43AE0A0
:1006D000012670026064DCE00298C60302E08169D2
:1006E0003142CED01920294600F0BCFB002841D170
:1006F00069480068411B20681A29F0D3816931429A
:10070000EDD0606C202108436064039821540020E0
:100710000499605442216054029EBAE00199C9B222
:100720008162816909061BD46420294600F09AFB86
:10073000002811D158480068411B20686529F0D372
:1007400081690906EDD4606C202108436064039838
:10075000215400200299605400200499605498E0CC
:10076000618D090A4F4F07D042683A40031DFF21AF
:100770004D4F09E0029E8CE0618D43683B40CAB258
:1007800012041A43031D77063A43A0273A431A601E
:1007900021858269920703D513E0816989070FD407
:1007A0006420294600F05EFB002872D13A480068B8
:1007B000411B20686529F0D381698907EDD451E098
:1007C000218D626A13788362638D5B1E6385521C80
:1007D0006262491E2185628D002A2BD00A0429D12C
:1007E000816909060FD46420294600F03BFB0028EC
:1007F0004FD129480068411B20686529F0D38169E1
:100800000906EDD43AE0618D090A06D0FF21218561
:100810004268244B1A40244B09E0618D21854368CE
:10082000204A1340CAB212041A4301235B061A433A
:100830003A434260628D002AABD1284600F0A4FB07
:100840000028049D039A24D120682021C161164606
:100850004268164B13404360A155009E66550298AE
:10086000265416E0606C20210843606403982154EC
:10087000002004996054029960540AE0606C2021C1
:10088000084360640398215400200499605402993D
:100890006054304605B0F0BDD8080020009800FC38
:1008A000A0200101009C00FC0000FF0100E800FE08
:1008B00010B5094800680949884200D010BD0124DC
:1008C00060054D490A6882430A606002FFF74CFCEC
:1008D000A002FFF749FC10BD740000200054004046
:1008E000BFF34F8F044805490160BFF34F8F00BF2E
:1008F00000BF00BF00BFFAE70CED00E00400FA05FE
:1009000070B581B03D2050490A5C002A01D00A68C8
:100910001AE03C2200238B540A68364B9A4213D1CA
:1009200001221402344D2E6826432E602D68254086
:100930000095009CFF242406304D2E68A6432E60AF
:10094000D2042F4C22601A4602230B5415683F4BE9
:100950009A4202D03E4CA24204D17024A5438C6836
:100960002C4300E02C46274DAA4208DD9A420CD0C9
:10097000254DAA4209D0254DAA4206D038E0344D73
:10098000AA4202D01B4DAA4232D103252D02AC430C
:100990000D6925438024A5438C692C431460CC68E1
:1009A000D4624C6894629A4205D0174B9A4202D0A6
:1009B000164B9A4201D14B691363012353611469A9
:1009C000E40702D014699C43146146228B543E22F2
:1009D0008B540A463E3253709370D37042228B542C
:1009E0000A46423253709370D3700B5401B070BDFD
:1009F0002546CFE7002000401C10024010E400E034
:100A000000E100E0FF2B01400048014000440140AC
:100A10003D200D490A5C012A14D102220A540868BB
:100A2000C26801210A43C260084A904202D0084AC3
:100A3000904204D1826807231340062B02D002683B
:100A40000A4302607047C046C8000020002C0140E5
:100A500000040040F0B581B08648056801222A6292
:100A60000221296204210091296210232B620821AE
:100A70002962EFF3108582F3108809267601076852
:100A80003C68B4433C6085F31088EFF3108482F334
:100A900010880568AE689643AE6084F31088046ED3
:100AA000012C09D1EFF3108482F3108805682E68B9
:100AB0009E432E6084F310880468A468640630D5D1
:100AC000EFF3108482F310880568AE684027BE43B8
:100AD000AE6084F31088456F002D22D02E4620365C
:100AE00000276F637478022C11D12B681C68009763
:100AF0000E27BC431C601C6894431C60EB6B2C6C81
:100B00001546A5405D60009B3370727009E0377038
:100B1000009AAA63426F926B202A02D1842143502B
:100B20000CE05A220023835202680F241462946955
:100B30000C439461802120224250036600F020F88B
:100B400001B0F0BD10B54B4800680A49884200D09A
:100B500010BD0124A00308490A6882430A600E20E0
:100B6000FFF702FBE00605490860BFF34F8FBFF3B4
:100B70006F8F10BD003801401810024080E100E086
:100B8000F0B581B080233B48C15820290AD185683F
:100B900001210A03954207D10469002C04D1A84C15
:100BA000E40701D001B0F0BD002404660668766851
:100BB00036020DD5EFF31085009581F310888E066F
:100BC00007683D6835433D60009D85F31088856862
:100BD0005A26815358268153994E46658466002DC6
:100BE00007D0954225460AD10569002D06D1224D30
:100BF00005E00569002D01D07F2500E0FF25842652
:100C000084515C2405532224C450EFF3108381F3F4
:100C100010880468A5680D43A56083F310880369F4
:100C20008468944204D1002B14D0144A826603E0F5
:100C3000124A8266002B0FD0EFF3108281F31088E6
:100C400009214901006803680B43036082F310889F
:100C500001B0F0BD0A4A8266EFF3108281F310887A
:100C60000068016820230B43036082F3108801B001
:100C7000F0BDC04610010020FF010000AB1B0008C2
:100C8000EB1A0008F0B581B06C4CA17A6C48007882
:100C9000A289322A15D3002901D00021A172002196
:100CA000A181012809D16A480021215467486B4A73
:100CB0002252644821520320A072FFF761FF01B065
:100CC000F0BD0025A5810629F7D8C04679440979E9
:100CD00049008F4403041E3D536C7500E1E75949F8
:100CE000625A521C6252594BE65AF7B247407F0093
:100CF0005849C95B360A4E40E652218A0902081853
:100D0000208290B20228D8D14E4825520420A072E9
:100D1000D3E74C49625A531C63524B4EA25B1202FA
:100D20001218A25398B20228C7D14848235A92B247
:100D300093427DD1228A002A7CD02552655205201B
:100D4000A07245488242B8D3414801212154B4E7FA
:100D50003C49625A531C63523C4BE65AF7B2474037
:100D60007F003C49C95B360A4E40E652A073002A18
:100D7000A3D1344825520120A0729EE78321C900E7
:100D800060543049625A531C6352304BE65AF7B2F2
:100D9000474078002F4F385A360A4640E652002A1C
:100DA0008BD12948255265520220A07285E7284937
:100DB000615C00291ED02349605A401C60522BE020
:100DC0002049625A521C62521F49635A1B0218186A
:100DD000605291B2022900D06FE71D49615C002981
:100DE00006D11A49615A80B2814201D100F01EFB3E
:100DF000A57262E71349625A531C6352134BE65AB9
:100E0000F7B247407F00134BDB5B360A5E400F4B67
:100E1000E652A2189074605A218A80B2884200D0AB
:100E20004BE709482552074825520620A07244E79F
:100E3000A57242E700F0FAFAA5723EE7E40100204D
:100E4000E101002012040000160400001404000058
:100E500019040000DE3B000801040000C1C00000CE
:100E6000FEE70000F0B582B0604A13689C69E406B2
:100E700002D4002007464BE01024DC619C69A406E4
:100E800042D40127BC030194594E009002E09C69B2
:100E9000A40639D435686D1A8542F8D91446384607
:100EA0005D684227D75D9C6924040CD5019C2540D0
:100EB00009D1202F0746009807D05968019C21438B
:100EC0005960316801E0074600989C69A406DED4A9
:100ED0003468641A192C14D89C69A406D7D43468D1
:100EE000641A192C0DD89C69A406D0D43468641AED
:100EF000192C06D89C69A406C9D43468641A1A2C23
:100F0000E3D39869242003E02020D861012704203E
:100F100001269969CC0503D53402DC61304337469C
:100F200075024C0506D429420AD1002F0BD10020AE
:100F300002B0F0BDB402DC6108242043294202D093
:100F4000DD61022108439969890701D50021996271
:100F50009969C90703D1996901240C439C615968B7
:100F6000084C0C405C60516C0143516441202021CD
:100F7000115440200021115442201154012002B08C
:100F8000F0BDC04600E800FEF0B581B00446174D44
:100F9000286880690026800621D4BF4F02E0886956
:100FA00080061FD464202146FFF75CFF0146012024
:100FB000002918D139680A1B2968652AEFD38A6984
:100FC0009206ECD4696C20221143696441216A5471
:100FD000402100226A5442216A5401B0F0BD3046DB
:100FE00001B0F0BD304601B0F0BDC0467400002035
:100FF000D8080020F0B583B00C46019049684878C5
:101000000978009109020E18714271417A4A1278EA
:10101000534253410B4379490A88012500219642E6
:101020002F4600D30F463B43754F3F88BE4200D842
:101030000D462B4317D102AE707000993170801AA3
:10104000C0B27049095C666004222281B1708000E0
:10105000454908587D21C900FFF754F8F070019800
:10106000214600F0B1FA012003B0F0BDF0B583B025
:1010700001904868437800780202D61872427241A3
:101080005D4C24786542654115435C4A1488012211
:101090000027A642144600D33C462543584C2488DA
:1010A000A642144600D83C4625430CD102AC062586
:1010B000A5706370207005480270032008814C60A1
:1010C000019800F081FA012003B0F0BDE201002098
:1010D000F0B585B003904C686278207802900002E9
:1010E0000192871878427841434A12785642564115
:1010F0000643424802880123002097421D4600D340
:1011000005462E433E4D2D88AF421D4600D805466C
:101110002E4324D1019EB01A124A1278002A07D019
:10112000C0B28000104A124B13501520FF220AE073
:101130007D22D500A2785543C0B280000A4C2550CC
:101140000A480370062004ABD8709A705E7002984B
:101150001870042008814B60039800F035FA0120D4
:1011600005B0F0BD31000020040000203000002058
:1011700018E40300F0B585B0029003914A685178F5
:101180001078019000024718784278411A4B1B787A
:101190005E425E4106431948058801200024AF42A3
:1011A000034600D323461E43154B1B889F4200D89D
:1011B000204606431DD19078032800D300204B1B06
:1011C000DBB2104CE05404ADA87009CC0E4C09C43D
:1011D000697001982870907803994D6004220A8103
:1011E000032801D3152000E00620E870029800F0E3
:1011F000EBF9012005B0F0BDE0010020AA010020BC
:10120000A8010020A0010020D0010020FEE77047C7
:1012100070470000F0B585B01F480168491C0160A7
:101220001E480078012834D1E34CA089312801D828
:10123000401CA081E148205C00282AD0184966188B
:10124000002704E014367F1CC1B28F4221D23268DD
:10125000002AF7D0B1880029F4D0491EB1800904D2
:10126000F0D1B568F3682946194308D00493039573
:1012700000200190694620469047D048205C00211C
:101280003160C1B2491E8F42DCD1401ECB4960544F
:10129000D8E705B0F0BDC046D8080020980100206E
:1012A000AC0400007047000070B54C4BC24AD458E3
:1012B000002C4ED04A4BD458002C4DD0494BD4581A
:1012C000002C4CD0484BD458002C4BD0474BD45812
:1012D000002C4AD0464BD458002C49D0454BD4580A
:1012E000002C48D0444BD458002C47D0434BD45802
:1012F000002C46D0424BD458002C45D0414BD458FA
:10130000002C44D0404BD458002C43D03F4BD458F1
:10131000002C42D03E4BD458002C41D03D4BD458E9
:10132000002C40D03C4BD458002C3FD03B4BD458E1
:10133000002C3ED03A4BD458002C3DD0394BD458D9
:10134000002C3CD0384BD458002C46D1D318132451
:1013500037E0D318002434E0D318012431E0D31847
:1013600002242EE0D31803242BE0D318042428E011
:10137000D318052425E0D318062422E0D318072427
:101380001FE0D31808241CE0D318092419E0D3184F
:101390000A2416E0D3180B2413E0D3180C2410E011
:1013A000D3180D240DE0D3180E240AE0D3180F240F
:1013B00007E0D318102404E0D318112401E0D31857
:1013C0001224E5005519C726F600A85519607C4877
:1013D000115CA14201D8611C115470BD3C06000093
:1013E000440600004C060000540600005C060000A5
:1013F000640600006C060000740600007C06000015
:10140000840600008C060000940600009C06000084
:10141000A4060000AC060000B4060000BC060000F4
:10142000C4060000CC060000D4060000F0B58BB066
:1014300000220692604B987B06A908700892188AD1
:1014400008818320C000185C88700A92009209927B
:101450001846123007905948185C0290002840D076
:101460009521CD002846103005902C460C342A4694
:101470000A322946083104912E1D012111E0059FF1
:1014800014361435143414370597411C039A14325A
:101490001F460346049814300490029883423B464A
:1014A0001FD2039208469A59002AE8D0595D06AB2C
:1014B0001B789942404B059FE2D101901859099041
:1014C000D8590A9006A9184690473B4B09991951DB
:1014D0000A99D951002852D13848185C02900198D5
:1014E000CEE700980A900990354C185D002823D06B
:1014F000C721C9005D18012105E0385D3B4608356C
:10150000711C864218D20E466A68002AF7D006A9D6
:1015100089782B788B42284BF1D106A918461F46B3
:1015200090470028E9D0032804D100986860385D0E
:10153000B04220D00BB0F0BD224C185D0028F9D08D
:10154000DB21CD00012606E0385D3B462D1D711CD8
:1015500086420E46EED25A59002AF7D006A91846FE
:101560001F4690470028EFD00328E3D10098785118
:10157000385DB042DED1401E38550BB0F0BD0228B8
:1015800013D00328D6D10098D85118519859002863
:10159000D0D0009898510948185C01998842C9D167
:1015A000401E064958540BB0F0BD0398185A0499D0
:1015B00058520BB0F0BDC046E4010020EC0600001C
:1015C000ED060000EE060000F0B589B001264E7071
:1015D0007C4BC518AB7A002B01D009B0F0BD0A4690
:1015E000774BC11814784C700E70507A0002070ABD
:1015F0008F701389CB709078079008710896C12678
:101600006640F4B26400704E345BE0B27840C027AC
:1016100047407800305A240A44405C40E3B25B0003
:10162000F35ADCB2000A6040079C60404000305A28
:10163000040A4C710C461B0A43408B710898A8722F
:101640000721296000272F8113896B60002B00D1AF
:10165000AEE0506800900028BFD00721019403E05D
:10166000E719002B00D18CE08020441A9C4200D363
:101670001C46A0B20028059473D0039306900098EE
:10168000C21901984118032323400698401E0328DD
:101690000497029301D2002037E00698C01A079001
:1016A00000200892145C0C542F897C40E4B2640042
:1016B000345B3F0A67402F810F1814180A463146E1
:1016C00066787E702B895E40F6B276008E5B1B0AD0
:1016D00073402B81A378BB702E897340DBB25B0013
:1016E000CB5A360A5E402E810E461146089AE378A0
:1016F000FB702C896340DBB25B00F35A240A5C4028
:101700002C81001D079B8342CCD1029F002F23D048
:10171000135C0B542C896340DBB25B00F35A240A40
:101720005C402C81012F17D0431CD45CCC542B89F6
:101730005C40E4B26400345B1B0A63402B81022FDF
:101740000AD0801C125C0A5428894240D1B2490058
:10175000715A000A484028812968049F039B059C10
:101760000698091829601B1B802900D078E7802182
:1017700001981C4600F02AF82346059C00212960A8
:101780006EE76868002812D008467F380128019C5F
:1017900004D8204600F01AF800212960687A6054C5
:1017A0006018297A41702868811C296000E0019C3A
:1017B000204600F00BF80020A87209B0F0BDC0462A
:1017C0001A0400009C040000DE3B0008F0B581B064
:1017D000494AD36F202B00D08AE0002800D187E04F
:1017E0000B0400D184E001231B0394689C4213D1B5
:1017F0001569C30701D0002D7AD084230024D4506A
:101800005023D1522123D3673C4B1B68522691535E
:10181000002D0CD101460CE084230024D450502329
:10182000D1522123D367354B1B6852241153002119
:1018300004465225565B1068002E33D02F4EC769E0
:101840003F061DD43768FF1A2D2F4FD80768C76988
:101850003F0615D43768FF1A2D2F47D80768C76988
:101860003F060DD43768FF1A2D2F3FD80768C76988
:101870003F0605D43768FF1A2D2F37D80768DEE7F3
:10188000002C03D027780785641C05E00C881C4FCA
:101890003C400485891C0024575B7F1E5753575BCF
:1018A000002FCCD1C169490620D414490C68E41A30
:1018B0002D2C1BD80468C469640617D40C68E41A7C
:1018C0002D2C13D80468C46964060FD40C68E41A7C
:1018D0002D2C0BD80468C469640607D40C68E41A7C
:1018E0002D2C03D80468C4696406DFD52020D06796
:1018F000FFF746F901B0F0BD10010020D808002024
:10190000FF010000F0B585B06B480068C168022295
:101910000B4613405C425C4103691A4056425641F3
:1019200026438025EA430492002E06D1049A7E3293
:1019300002610022604C22778269012204240C405B
:10194000674267415C07164600D53E46002E06D129
:10195000049C7C3404610024574E34778469082445
:101960000C40674267411C07164600D53E46002ED4
:1019700006D1049C7834046100244F4E3477C46946
:1019800010260C460396344066426641DC06174634
:1019900000D53746002F06D1049C70340461002422
:1019A000454E3477C46901260C463440674267418E
:1019B000DC07144600D03C46002C52D1049C7F34F6
:1019C00004613E4CA0424CD13D4C039F2761740200
:1019D0003C4F02943C6136023E613D6040240094DD
:1019E0003C60202401943C60374F3C78022C07D0A7
:1019F000012C0AD0002C0DD1314E039F376009E035
:101A00002746304C26603C4604E026462D4C029F7B
:101A1000276034460327029703946743FCB22B4E9A
:101A2000345D002C01D0274C25617C1CE4B2274E8C
:101A3000345D002C02D0234C009E2661BC1CE4B215
:101A4000224E345D002C02D01E4C019F2761039C66
:101A5000641C1F4F67437F0C029E7E43A41B1A4EDB
:101A600034700D406E426E411C06144600D534465B
:101A7000002C01D1049C046140240C406542654166
:101A80005C06144600D52C46002C02D1049C403440
:101A90000461202421404D424D41990603D4002A7F
:101AA00004D005B0F0BD2A46002AFAD1049960316D
:101AB000016105B0F0BDC046C80000200020004014
:101AC000180000481804004828000020D001002019
:101AD000ABAA000080B5406A0146523100220A815B
:101AE00052214252FEF7B6FF80BD70B580214258A8
:101AF0000168222A0FD102465A325388898C194034
:101B0000436D19801188491E1180991C4165118807
:101B1000002905D070BD8869082202438A6170BD22
:101B200002468032EFF31083012181F310880924EB
:101B3000640105682E68A6432E6083F31088EFF3D6
:101B4000108381F310880468A5688D43A56083F332
:101B500010882023136000224266826603685B6857
:101B60001B020AD5EFF3108381F310888C060568F9
:101B70002E68A6432E6083F31088036E012B11D1CB
:101B80000266EFF3108281F3108803681C6810214D
:101B90008C431C6082F310880068C269D206B9D5F4
:101BA000016270BDFFF76EF870BD70B580214258BC
:101BB0000168222A10D102465A325388898C194072
:101BC000436D19701188491E1180416D491C416592
:101BD0001188002905D070BD8869082202438A61F6
:101BE00070BD02468032EFF31083012181F310882B
:101BF0000924640105682E68A6432E6083F31088CB
:101C0000EFF3108381F310880468A5688D43A56005
:101C100083F31088202313600022426682660368E3
:101C20005B681B020AD5EFF3108381F310888C06E2
:101C300005682E68A6432E6083F31088036E012B7F
:101C400011D10266EFF3108281F3108803681C68DB
:101C500010218C431C6082F310880068C269D20690
:101C6000B9D5016270BDFFF70DF870BDF0B582B057
:101C70000568EB690B4000268B4202D1304602B06A
:101C8000F0BD0190783000900120C702384C03E08D
:101C9000EB690B408B42F1D023689B1A5B0E32D16B
:101CA0002B685B07F4D5EB691B072FD4EB693B422C
:101CB000EED02F62EFF31080012282F31088092109
:101CC0004901019E33681C688C431C6080F31088B6
:101CD000EFF3108082F3108831688B6893438B6038
:101CE00080F31088336E03202021012B36D1EFF3CF
:101CF000108382F31088326814681025AC43146096
:101D000083F310882AE0032002B0F0BD0821296285
:101D1000EFF3108280F3108809235B01019E346881
:101D200025689D43256082F31088EFF3108280F3CD
:101D3000108833689C6884439C6082F31088326EFC
:101D4000012A0BD1EFF31082012080F31088336851
:101D50001C681025AC431C6082F31088009B202275
:101D60009A6000223266B2661A70D96002B0F0BD85
:101D7000D8080020F0B587B0C5480668F369376811
:101D80002021384603910F407C427C41012106917D
:101D9000CA0215462F351D40203D691E8D41254341
:101DA0000496B5684AD011460F3105930B4203469D
:101DB00006D0B849194001263540691800D082E0A4
:101DC0001026194631404D424D41059A1146314089
:101DD0004F424F41E449096E0129069C00D13C461F
:101DE000002C069C049800D12C46002C2FD080217A
:101DF0001940484248411106069C00D50446002C73
:101E000000D1E6E0402003405C425C41510600D531
:101E1000069406990029D44C00D036E1EFF31081E6
:101E2000012282F31088226813688343136081F3D0
:101E300010880020E0660398E06726E1CA48816EBA
:101E4000002900D121E1C848884707B0F0BD0662EB
:101E50008068400600D5C1E05A22C34DA85A5821D7
:101E6000695AAA5A002A00D10FE1814200D10CE13F
:101E7000EFF31081012080F31088092252012B68B2
:101E80001C6894431C6081F31088EFF3108180F389
:101E900010882A6893688343936081F310888021B7
:101EA000039A6A500021A9662966EFF3108180F336
:101EB000108828680268B243026081F3108802200B
:101EC000686607B0F0BD0192310219404C424C41A6
:101ED0000599C907069800D0204600280296049864
:101EE00007D106628421A04A5458029E34435450BC
:101EF000029E6C426C4105998907069900D52146DE
:101F000000290AD1022101628421974A5458009481
:101F10000424009E34435450029E6C426C41059947
:101F20004907069900D52146002908D104210162FC
:101F300084218D4E7258022414437450029E3D43F6
:101F40006C426C4105990907069D00D52546002D78
:101F500007D1082101628424834E35590D43355140
:101F6000029EB1060B405C425C410599019A114208
:101F7000069B00D02346002B7B4C06D101990162C1
:101F800084216358039D2B436350842561590029A4
:101F900000D17AE00399059A0A407B427B41002AEE
:101FA00000D006930699002905D1A16E002902D020
:101FB000204688472068615928220A4081684020CD
:101FC0000140891868D1FEF745FD0020605107B037
:101FD000F0BD6548C16E002957D034E7624F796F74
:101FE0000868426890B200284FD05823FB5A9842A4
:101FF0004BD25A203A528969202900D1A9E0EFF347
:102000001082012181F31088594B20333C682568E8
:102010001D40256082F31088EFF3108281F3108851
:102020003B689C688C439C6082F31088EFF31082BD
:1020300081F310883B689C684025AC439C6082F328
:1020400010888022039BBB5000223A66EFF3108376
:1020500081F310883C682568B543256083F31088B8
:102060007D6F2B4620335C78022C6ED12C6826685D
:102070000E27BE43266026688E432660EC6B2D6CCF
:102080000E46AE406660597061E007B0F0BDC046D4
:102090001001002020010004EFF3108186F3108866
:1020A0000922520123681C6894431C602E4C81F362
:1020B0001088EFF3108186F3108822689368B34389
:1020C000936081F31088216E01290BD1EFF3108109
:1020D00086F31088226813681024A343224C1360EF
:1020E00081F310888021039A625000212166A16645
:1020F00022689268520624D5EFF3108286F3108886
:10210000236825469C6884439C6082F31088686F2E
:10211000002816D002462032144B43635378022B1A
:102120001CD103681C680E25AC431C601C68B443BA
:102130001C60C36B046C3546A5405D601170567021
:102140000EE0FEF787FC07B0F0BD0421A9631A700A
:10215000054F02217966385A07B0F0BD042181632A
:10216000FFF7B8FC07B0F0BD10010020D51A000839
:10217000DFFEFFFFF0B581B0002469462046FEF780
:1021800023F90028254648D17D20C60069460878F5
:102190007043294F386001252846FEF715F90028BD
:1021A0003BD1694608787043786002252846FEF7DF
:1021B0000BF9002831D1694608787043B8600325CF
:1021C0002846FEF701F9002827D1694608787043B0
:1021D000F86004252846FEF7F7F800281DD1694667
:1021E00008787043386105252846FEF7EDF8002889
:1021F00013D1694608787043786106252846FEF7B2
:10220000E3F8002809D1694608787043B8610725CA
:102210002846FEF7D9F8002807D0A80006490C5038
:1022200006480121017001B0F0BD684600784643C0
:10223000FE6101B0F0BDC046040000203100002066
:10224000134900200870134A13689B0401D401202D
:10225000087013685B0401D4801C087012681204B3
:1022600001D4001D08700C4A1368DB0701D1083047
:1022700008701268920702D41030087001E000283C
:1022800005D0C00005490880C01F05490880704777
:10229000E00100201008004810140048A8010020A8
:1022A000AA01002000B59FB0EC4A106810211791D8
:1022B000084310607D20C100E94800681091FDF7D7
:1022C00021FF401E010EE74C10D1E7494860E74866
:1022D0000268224003239B07D218026000228A6012
:1022E00007220A6001682140C9180160E04D286892
:1022F000012108432860286808401A901A9818910C
:1023000009076868084368606868169108401A9071
:102310001A982E46143E30680007800F32D12846A6
:102320001838006828461838016880221192114335
:102330007822159291430160E968189A1143E96087
:10234000CC4C2168EA6892074CD42268521A022ABF
:1023500000D917E1EA68920744D42268521A022A87
:1023600000D90FE1EA6892073CD42268521A022A87
:1023700000D907E1EA68920734D42268521A022A87
:10238000E0D9FFE030680C210140082902D1306813
:10239000C003C4D5284618380168189A1143016053
:1023A000B4490A6803689B07BCD40B689B1A022BCC
:1023B00000D9E7E003689B07B4D40B689B1A022B93
:1023C00000D9DFE003689B07ACD40B689B1A022B93
:1023D00000D9D7E003689B07A4D40B689B1A022B93
:1023E000E0D9CFE0E96904220D921143E961E9697E
:1023F000189A1143E9612168EA6992071CD422689E
:10240000521A022A00D9BDE0EA69920714D4226860
:10241000521A022A00D9B5E0EA6992070CD4226860
:10242000521A022A00D9ADE0EA69920704D4226860
:10243000521A022AE0D9A5E0E969119A1143159AC6
:102440009143E96131680C273940082946D1316848
:102450006A69CB0300D595E00F231A4000D091E0C4
:102460009A0411400522D204914200D08AE07B49AF
:102470000968C90707D1794B196801220A431A6014
:102480001968C9070DD007210E91090232680A4365
:1024900032603268F0239A4332600068800100D5D0
:1024A00096E0EFF3108072B6734800687349884273
:1024B00006D1012041022A688A432A60FDF754FEB2
:1024C000FEF7F6F96E4800686E4988427CD101201B
:1024D00001026A688A436A60C0046FE0189B1906AB
:1024E00002688A4302605906226803680B4219D0C9
:1024F00023689B1A022B45D803680B4212D023682D
:102500009B1A022B3ED803680B420BD023689B1A00
:10251000022B37D803680B4204D023689B1A022B86
:10252000E3D92FE06A690F239A436A613D221204BE
:10253000336893430522D2049A183260494A521CE8
:10254000036813430360226803680B428FD123683A
:102550009B1A022B16D803680B4288D123689B1A5A
:10256000022B0FD803680B4200D080E723689B1A28
:10257000022B07D803680B4200D078E723689B1A28
:10258000022BE1D9EFF3108072B63B4800683B495B
:10259000884206D118984202296891432960FDF7C4
:1025A000E3FDFEF785F936480068364988420BD1CD
:1025B000189A1002696881436960D0043249086042
:1025C000BFF34F8FBFF36F8FFEF7BCFAFEF788F9AA
:1025D000306802220A921043189A904330602068B3
:1025E0002A4A33683B40082B1FD023681B1A9342AA
:1025F00000D956E733683B40082B16D023681B1AD6
:10260000934200D94DE733683B40082B0DD0236837
:102610001B1A934200D944E733683B40082B04D08F
:1026200023681B1A9342DCD93BE70C4800683068EA
:1026300088433060306801463940189A12040B9282
:10264000134B0829059333D18102090F114A535CBA
:1026500069690B9A104221D10F4828E000200240FE
:1026600000000020FFFFFF0010E000E020ED00E090
:1026700018100240D8080020340000200024014037
:10268000C80000200020004080E100E08813000026
:1026900000127A00FE3D000800093D000F200140B5
:1026A000F948415CF9481493FDF72CFD149B434312
:1026B00030680006000FF6A1085CC340F8480360CC
:1026C00018461099FDF71EFD401EF649884212D8A3
:1026D000F5494860F5480268F24B1A4003239B070E
:1026E000D218026000228A600E9A0A600168ED4AE0
:1026F0001140C918016003200C90C043A969014032
:10270000A961A86917998843A861002014901E90B8
:102710001D901898C10403462A1F106808431060D2
:102720001068069108401990199899051068084397
:1027300010601068049108401990199859041068A5
:102740000843106010680791084019901998980480
:10275000116801431160089211680140199119989C
:102760000920C0061390D24981620B98411E09913D
:10277000D0488162D048C0210F9181621C93149887
:102780001B900E9840031A90CC481AA91291FDF79D
:1027900043FD18981C9014981B900C981A90C648EA
:1027A0001299FDF739FD14981D901C9018981B90F4
:1027B000BF481A9013981299FDF72EFD18981C9097
:1027C00014981B90E0201A9013981299FDF724FD9D
:1027D00014981D901C9018981B9009981A90B54851
:1027E0001299FDF719FD14981D901C9018981B90D4
:1027F0000F981A90B0481299FDF70EFD2420B04BA7
:102800000990149A1A54189898621A6240020F900C
:1028100001463F39AB4805C31A605A601898986062
:102820000D98D8601A6112915961083B986B002885
:1028300020D1342100205854D8631E901D9029685F
:102840000F9A114329602968114019911999089A22
:102850001168079B194311601168194019911C9068
:102860000C981B9001201A9019981AA91398FDF73B
:10287000D3FC934B19463831986BC00600D53EE126
:1028800018688268520700D539E18F49FE319A6B8A
:102890000A40911C996381680C9A1140012905D165
:1028A0000168C90713D1C168090410D4C16818228E
:1028B00091435A6817921A469B680B43C3600C9960
:1028C000890703698B4317990B4303611346C1685A
:1028D0007E4A0A40C260996A7D4A012901D0511C92
:1028E0001491197E89035A7ED3030B437449897E60
:1028F000179149031943724AD368714A12690B430D
:1029000014990B43911E4A424A4192001A436C4B60
:102910000999595C49001143DA7E012A039011D1CB
:10292000179A002A02D10B9A11430BE09A6B2023CD
:102930001343634A9363624AD26B01231343604A91
:10294000D3635F4BDA691298824204D05C4B1B6AF6
:1029500019435B4B11430398C26817910A43C26045
:10296000D96A4A1E1492072A00D310E143690E9ACD
:10297000934343610B46134042691A4342611691E7
:10298000C268544B134017998B4200D0ACE0002131
:1029900018914B4BD9639A6B012117910A430A99FD
:1029A0008A439A6318991A9134215A5C012A00D1FA
:1029B000F8E08268520700D5EEE01291826A17991A
:1029C0000A4382621499072900D324E218981299C5
:1029D0005854414B179A4149196041491491404953
:1029E00059609860DA60186158619861D86118621E
:1029F00041200390185C00281692384829D14020C5
:102A000000211954089A1068079B18431060106839
:102A1000184019900D981E901C9112201B900C9834
:102A20001D9040021A9019981AA91398FDF7F4FB0B
:102A3000294B0120400569680143696069680140CC
:102A40001991199803CB1491196818915968169126
:102A5000083B0999039A9954036817998B430360BB
:102A60000F2101910B0614999943016182681D4B56
:102A70001A4082601699012900D0C9E00122D203D0
:102A8000189911438160D0E00E3E000800127A00D0
:102A9000000000000000000001020304060708090E
:102AA00000000020FFFFFF0010E000E020ED00E04C
:102AB0001099000000040048001400480008004875
:102AC0003400002000240140FFFDFFFF1902FEFF3B
:102AD000FF0F0000E7FF3F83740000200054004018
:102AE0000A021000FF7FFFFFD64B986B10210143B5
:102AF0000A988143996319463C31189817900868E1
:102B0000179A10430860EFF3108072B61868CE4928
:102B1000884206D128680F99884328601898FDF7E5
:102B200023FBCA480068CA4988420AD1189C60053C
:102B30006968814369600F98FDF716FBA002FDF7F5
:102B400013FBC4480068C44CC44988420AD1189891
:102B5000000269688143696006982060BFF34F8F67
:102B6000BFF36F8FBE480068BE4988420DD1189EE2
:102B7000B0032968814329600E20FDF7F5FAF006BD
:102B80002060BFF34F8FBFF36F8FFDF7A9FE169A3A
:102B9000914200D1EAE6F2E618985854986B202149
:102BA00001439963EFF3108072B61868A649884212
:102BB00006D12868AC49084028600120FDF7D4FA06
:102BC000A2480068A24988420AD1012460056968C8
:102BD000814369600F98FDF7C7FAA002FDF7C4FAB8
:102BE0009C4800689C4C9D4988420AD10120000203
:102BF00069688143696006982060BFF34F8FBFF317
:102C00006F8F9748006897498842BED10126AFE789
:102C1000212292021899114381601699022904D148
:102C20000121C90242680A4303E00121C902426846
:102C30008A43426041688D4A0A434260C168194034
:102C4000C160824B19695A690A43996909021143A3
:102C5000C160D9691A6A0A430260016801221792A9
:102C600011430290016000225A6420201290039BBD
:102C700076491298C854754B1A63422114925A54DB
:102C800040211891595C491E4A424A410399595CB6
:102C900020394B1E99411143012936D1EFF31080A1
:102CA00072B6684800686849884206D128686E494B
:102CB000084028600120FDF757FA6448006864491D
:102CC00088420AD1012460056968814369600F98D0
:102CD000FDF74AFAA002FDF747FA5E4800685E4C2D
:102CE0005E4988425F4A0AD1012000026968814337
:102CF000696006982060BFF34F8FBFF36F8F58480D
:102D00000068904200D040E780E7504A039B099951
:102D1000D154029801680122169291430160016822
:102D2000E44A11400160016801600168169A11438C
:102D300001601299454AD1541499189A434B9954F9
:102D40004249039A895C20292DD1404B0999995415
:102D50000168169B994301600199090202688A4340
:102D600002600168194301601298384A039950546F
:102D7000149818995054D04AD0481060D048106028
:102D80000C985060CF4890602068D168490751D0B6
:102D90002168091A2829F8D3D1684907F5D0EFF33B
:102DA000108072B602E0EFF3108072B6254800681A
:102DB0002549884206D128682B490840286001200F
:102DC000FDF7D2F921480068214988420AD1169CB2
:102DD00060056968814369600F98FDF7C5F9A00235
:102DE000FDF7C2F91B4800681B4C1C4988420AD1F8
:102DF0001698000269688143696006982060BFF3F5
:102E00004F8FBFF36F8F164800681649884200D075
:102E1000BBE6169EACE617990A071699914200D1B7
:102E2000D4E5426942690E9B9A43064B426142696E
:102E30004261CBE51069A349884219D1A2481060CC
:102E400017E0C04634000020002401407400002038
:102E500000540040C800002080E100E00020004055
:102E60001001002000380140FFFDFFFF008000023C
:102E70001161964A149911625162E1204002944B0B
:102E8000136050609160D160116157619161D161AF
:102E9000D06F002844D1002015995054012103918E
:102EA0001E9189032A680A432A602A680A401992F7
:102EB0001999089A1168079B194311601168194004
:102EC00019910C991D911C900A981B900E201A9034
:102ED00019981AA91398FDF79FF97E4801687E4A50
:102EE00011400160039BD8067C4908600998774926
:102EF000C867486A0A68116899430A9211600028F5
:102F000070D0010713D4C1071CD1810725D4410714
:102F10002ED4C10637D481063FD4410648D45FE0A1
:102F20000998D067186816998843186066E00A9A6D
:102F3000516813466A4A1140644A526B0A435A6008
:102F4000C107E2D0039949040A9B5A688A435F4942
:102F5000896A114359608107D9D5039909040A9BED
:102F60005A688A435949C96A114359604107D0D503
:102F7000039989040A9B5A688A435449096B11438F
:102F80005960C106C7D50A9B99684A4A11404F4A01
:102F9000926B0A439A608106BFD5039949030A9B45
:102FA0009A688A434949C96B11439960410617D50C
:102FB0000399090509910A9B5A688A434349096C98
:102FC00008910A435A600999089A8A4208D10C99D3
:102FD00049050A9B5A688A433C49496C1143596028
:102FE000000602D40A9B394A08E00398C0040A9BF1
:102FF00059688143354A906C084358600A931868B1
:1030000038490140936810691843536903430B43DF
:10301000D069099003430A9803600C990903034699
:1030200040688843D1680143596018469169126A23
:103030000A430B2109029B688B4313438360A969F0
:103040008907090F28A252581699C903099888427E
:103050001ED1082A00D92BE15200C0467A4492883A
:1030600052009744080025016D0025015A002501F2
:10307000250125016C002048026830684005400F9A
:103080001E49085CC24005920598002858D18FE07F
:10309000082A00D90CE152007A44928852009744E1
:1030A0002F000701770007016400070107010701EE
:1030B0007600C046FFEFFFFF00300040CCCC0000A0
:1030C00055550000FF0F0000AAAA000010010020C3
:1030D0000038014018E400E0FFFFFF0000E100E0DD
:1030E000FF7FFFFFF369FFFF000000000400000006
:1030F000080000000200000000000020603E000800
:10310000EF48026830684005400FEE49085CC24055
:103110000592059800283BD14AE030680740082F07
:103120000ED18102090FF94A565C69690B9A104267
:1031300001D000F041FCF64870430590A4E70591EA
:1031400005984000F34949684A081018FCF7DAFF6F
:10315000014610390B9B103B994200D3A8E01A4658
:1031600002400007400F104320E030680740082F5E
:103170000ED18102090FE54A565C69690B9A10422B
:1031800001D000F024FCE24870430590C1E70591AE
:10319000E04841684808059A8018FCF7B3FF0146EB
:1031A00010390B9A103A914200D381E00A99C86015
:1031B000169A90030A9B9968014399609868D649CA
:1031C000084098601868D549014019601868104394
:1031D000186084201499CF4A11509166D1662768EF
:1031E000186800070BD516984105CA4E30463A4676
:1031F000FEF73CFD002800D07CE330680A900A9876
:103200000068400708D5C34E304604993A46FEF799
:103210002DFD002800D08FE31298BE4EF067119963
:1032200070501499159831543166BD4A9161BD486A
:10323000BD4B1360506091600D98D0601161716654
:10324000FDF75EFBFDF7E4FBB84E3078002817D1A0
:10325000B7480830DD21C900FCF77AFF17983070B5
:103260001020B449FEF720F81120B349FEF71CF8EE
:103270001320B249FEF718F81220B149FEF714F8EE
:10328000FDF77EFCAF4814990170FEF773FFFEF75F
:10329000D7FF00F0D1FB00F0CFFB00F0CDFBAA4838
:1032A00000780028189B08D0EFF3108072B664E312
:1032B000002098498866C8665CE3A44F06E0A448ED
:1032C000A4490160A04800780028EDD12268139835
:1032D00001690669006915909F480078090634D491
:1032E00000284ED1134601209C49087000209C49BB
:1032F00008701799984A11709A4908709A4A11787B
:10330000491C1170C9B2082900D3107003CF974A25
:1033100003C297481193181896490860083FFEF7B2
:103320008FFF119A2068189B2168091AC82928D88C
:103330002168091AC82924D82168091AC82920D85F
:103340002168091AC929EFD31BE0002819D011926E
:1033500081481499017020682168091AC8290BD87E
:103360002168091AC82907D82168091AC82903D869
:103370002168091AC929EFD303CF7C4A03C2119AE5
:10338000083F1E407C4800787449097800290AD01B
:10339000002E08D100286FD07548101875490860B4
:1033A000129B159E1AE0711E8E410640012E129B43
:1033B000159E13D170481499017020682168091A6C
:1033C000C8290BD82168091AC82907D82168091A01
:1033D000C82903D82168091AC929EFD31E406748B4
:1033E00000785E490978002909D0002E07D100280D
:1033F0005D4B69D05E4810185E49086019E0711E87
:103400008E410640012E584B13D15C48149901702F
:1034100020682168091AC8290BD82168091AC82907
:1034200007D82168091AC82903D82168091AC929A7
:10343000EFD320684F49096888420DD90E99197059
:103440000021464A1170474A11700CCF474E0CC6F6
:10345000454B434A1170083F1978795C012903D123
:103460000F990C3932228DE019787A5C3221022AC8
:1034700000D185E00A4685E03B4B1878385C414234
:103480004141187839541878385C354908701798D4
:103490003949087020682168091AC82900D97BE7D2
:1034A0002168091AC82900D976E72168091AC829AC
:1034B00000D971E72168091AC929ECD36CE7C04625
:1034C00000000020603E00081878385C414241410D
:1034D0004800197878541878385C21490870179892
:1034E0002649087020682168091AC82982D82168ED
:1034F000091AC82900D97DE72168091AC82900D905
:1035000078E72168091AC929EDD373E7FE3D000861
:1035100000093D0010010020FF7FFFFFFFFF00FCBE
:10352000C80000207FBB0000002000409801002060
:10353000E4010020F50F000875110008D110000803
:103540006D10000831000020E2010020A0010020E1
:1035500000300040AAAA00002A000020D901002063
:10356000D40800203200002024000020D0010020D8
:1035700010270000DC0100202B0000202900002083
:103580000F9A0C3AE24B1B78002B09D1E14B1B78C8
:10359000FB5CE14E3370179BDD4E3370DF4B1860E0
:1035A000DD4B1B78002B00D00A46DC490968411A24
:1035B00091420BD3D84B19784A424A411A70197874
:1035C000D44A1278D64B9954D4490860206814998B
:1035D00008E00023D34F7B5400231360491C0829C3
:1035E000189B72D07A5C022A1DD0012A3FD18A0032
:1035F000CD4B9E584B00CF4FFF5AB76226682768C5
:10360000BF1B142F0BD82768BF1B142F07D82768A0
:10361000BF1B142F03D82768BF1B152FEFD3C34E32
:10362000B658C34F1AE08A00C04B9E584B00C04F9B
:10363000FF5AB76226682768BF1B142F0BD827686C
:10364000BF1B142F07D82768BF1B142F03D8276868
:10365000BF1B152FEFD3F24EB658F24FFB5AB36192
:10366000F14EB358002B13D08A00B21817E08A002D
:10367000E94B9B584E00E94FBF5B9F62E84B9B585C
:10368000E84FBE5B9E620023E74EB350B21815E0D0
:10369000B21810608A00B218002803460ED0C61A6D
:1036A0008B00E24FFB589E42169F00D30027002B51
:1036B000179E00D03E46002E8BD002E08B00DB4EE2
:1036C000F358D44F002B89D186E7D94800780128D8
:1036D00000D0E0E0D54800681099FCF713FD1AA966
:1036E000087000263046FCF7AFFF002800D0CCE081
:1036F00020682168091A0A290BD82168091A0A29A1
:1037000007D82168091A0A2903D82168091A0B2940
:10371000EFD3C64840681099FCF7F4FC1AA908706A
:103720000120FCF791FF002800D0AEE0206821685E
:10373000091A0A290BD82168091A0A2907D8216809
:10374000091A0A2903D82168091A0B29EFD3B748A7
:1037500080681099FCF7D6FC1AA908700220FCF7C3
:1037600073FF002800D090E020682168091A0A2918
:103770000BD82168091A0A2907D82168091A0A29C9
:1037800003D82168091A0B29EFD3A848C0681099FB
:10379000FCF7B8FC1AA908700320FCF755FF0028B5
:1037A00073D120682168091A0A290BD82168091ADF
:1037B0000A2907D82168091A0A2903D82168091A91
:1037C0000B29EFD3994800691099FCF79BFC1AA9C3
:1037D00008700420FCF738FF002856D120682168C3
:1037E000091A0A290BD82168091A0A2907D8216859
:1037F000091A0A2903D82168091A0B29EFD38B4823
:1038000040691099FCF77EFC1AA908700520FCF7A6
:103810001BFF002839D120682168091A0A290BD812
:103820002168091A0A2907D82168091A0A2903D820
:103830002168091A0B29EFD37C4880691099FCF79D
:1038400061FC1AA908700620FCF7FEFE00281CD1B6
:1038500020682168091A0A290BD82168091A0A293F
:1038600007D82168091A0A2903D82168091A0B29DF
:10387000EFD36E48C0691099FCF744FC1AA9087090
:103880000720FCF7E1FE002822D017985E49087057
:1038900067480670189B674800682168081A5B49EA
:1038A000884205D9FEF766FC189B206861490860CC
:1038B00055480078012800D001E555485B4908606B
:1038C00048608860C860086148618861C861F6E442
:1038D00020682168091A0A29DAD82168091A0A29F0
:1038E000D6D82168091A0A29D2D82168091A0B29C1
:1038F000EFD3CDE7EFF31080169981F3108831688C
:103900000A68119B9A430A6080F310887C362BE08A
:103910003200002024000020D4080020CC01002028
:10392000D0010020A0010020403E0008203E0008F9
:10393000DE3D0008EE3D0008EFF31080169C84F396
:1039400010882C49E031326813680B40136080F313
:103950001088EFF3108084F3108831688A68A243DE
:103960008A6080F31088803614981599254A50543F
:1039700012983060EFF3108072B61D480068194944
:10398000884206D128681B49084028600120FCF7BE
:10399000EBFBFCF78DFF184800681949884201D0FD
:1039A000FEF712FE01200002696881436960134836
:1039B00006990160FEF704FE019801400B48415C46
:1039C0000948FCF79FFB46430596FFF75DFB01980E
:1039D00001400648415C0448FCF794FB46430596C9
:1039E000FFF797FB0024014000127A000E3E00080A
:1039F00034000020FFFDFFFFC800002080E100E050
:103A0000002000401001002031000020102700009D
:103A100018E40300A0010020203E0008DE3D00085D
:103A2000403E0008EE3D0008AC01002004000020EC
:103A3000300000202C00002070B55D480168FF2296
:103A40002E3203685B1A93420BD203685B1A9342CF
:103A500007D203685B1A934203D203685B1A93424E
:103A6000EFD3544901240C71CC70026803689B1A8F
:103A7000322B0BD803689B1A322B07D803689B1A8A
:103A8000322B03D803689B1A332BEFD34A4A4B4B94
:103A900013604C718C7005680668761B322E0BD84B
:103AA0000668761B322E07D80668761B322E03D89E
:103AB0000668761B332EEFD313608C714C7005684B
:103AC0000668761B322E0BD80668761B322E07D876
:103AD0000668761B322E03D80668761B332EEFD38A
:103AE0001360CC710C70046805682D1B322D0BD847
:103AF00005682D1B322D07D805682D1B322D03D8E4
:103B000005682D1B332DEFD3136000240C71CC708E
:103B100005680668761B322E0BD80668761B322E97
:103B200007D80668761B322E03D80668761B332E1C
:103B3000EFD313604C718C7005680668761B322ECB
:103B40000BD80668761B322E07D80668761B322EF5
:103B500003D80668761B332EEFD313608C714C703C
:103B600005680668761B322E0BD80668761B322E47
:103B700007D80668761B322E03D80668761B332ECC
:103B8000EFD31360CC710C7001680468641A322C96
:103B90000BD80468641A322C07D80468641A322CD3
:103BA00003D80468641A332CEFD3136070BDC04689
:103BB000D8080020D001002000300040AAAA000050
:103BC00002E008C8121F08C1002AFAD170477047E6
:103BD000002001E001C1121F002AFBD17047000044
:103BE000C1C081C1400101C3C003800241C201C6FE
:103BF000C006800741C70005C1C581C4400401CC8F
:103C0000C00C800D41CD000FC1CF81CE400E000A07
:103C1000C1CA81CB400B01C9C009800841C801D885
:103C2000C018801941D9001BC1DB81DA401A001E7F
:103C3000C1DE81DF401F01DDC01D801C41DC00149E
:103C4000C1D481D5401501D7C017801641D601D205
:103C5000C012801341D30011C1D181D0401001F0B6
:103C6000C030803141F10033C1F381F2403200367F
:103C7000C1F681F7403701F5C035803441F4003C8E
:103C8000C1FC81FD403D01FFC03F803E41FE01FA85
:103C9000C03A803B41FB0039C1F981F84038002827
:103CA000C1E881E9402901EBC02B802A41EA01EEFD
:103CB000C02E802F41EF002DC1ED81EC402C01E49E
:103CC000C024802541E50027C1E781E64026002287
:103CD000C1E281E3402301E1C021802041E001A055
:103CE000C060806141A10063C1A381A240620066FF
:103CF000C1A681A7406701A5C065806441A4006C8E
:103D0000C1AC81AD406D01AFC06F806E41AE01AA04
:103D1000C06A806B41AB0069C1A981A84068007886
:103D2000C1B881B9407901BBC07B807A41BA01BE7C
:103D3000C07E807F41BF007DC1BD81BC407C01B49D
:103D4000C074807541B50077C1B781B64076007206
:103D5000C1B281B3407301B1C071807041B00050F5
:103D6000C190819140510193C0538052419201967C
:103D7000C056805741970055C19581944054019C8D
:103D8000C05C805D419D005FC19F819E405E005A86
:103D9000C19A819B405B0199C05980584198018824
:103DA000C04880494189004BC18B818A404A004EFE
:103DB000C18E818F404F018DC04D804C418C00449D
:103DC000C184818540450187C04780464186018284
:103DD000C042804341830041C18181804040400016
:103DE00000081000008000400010000402000010D5
:103DF0000001080080000020000804000100020308
:103E00000405060708090A0B0C0D0E0F101001021D
:103E1000030405060708090A0B0C0D0E0F1000001D
:103E2000001400480000004800040048000000485A
:103E30000004004800040048000400480004004852
:103E4000000000480000004800040048001400483A
:103E50000004004800040048000400480004004832
:103E60000000000001020304883E0008000000205A
:103E700028000000C03B0008B03E000828000020D9
:103E8000B80C0000D03B000800127A00307500002A
:103E9000307500003075000030750000307500008E
:103EA000307500003075000030750000070000001C
:04000005080000B13E
:00000001FF
